{
  "contractName": "Flying",
  "abi": [
    {
      "inputs": [],
      "stateMutability": "nonpayable",
      "type": "constructor"
    },
    {
      "inputs": [
        {
          "internalType": "string",
          "name": "privateKey",
          "type": "string"
        },
        {
          "internalType": "string",
          "name": "publicKey",
          "type": "string"
        }
      ],
      "name": "setUserInfo",
      "outputs": [],
      "stateMutability": "nonpayable",
      "type": "function"
    },
    {
      "inputs": [
        {
          "internalType": "address",
          "name": "addr",
          "type": "address"
        }
      ],
      "name": "getUserInfo",
      "outputs": [
        {
          "components": [
            {
              "internalType": "string",
              "name": "privateKey",
              "type": "string"
            },
            {
              "internalType": "string",
              "name": "publicKey",
              "type": "string"
            },
            {
              "internalType": "bool",
              "name": "disabled",
              "type": "bool"
            }
          ],
          "internalType": "struct Flying.UserInfo",
          "name": "",
          "type": "tuple"
        }
      ],
      "stateMutability": "view",
      "type": "function"
    },
    {
      "inputs": [
        {
          "internalType": "address",
          "name": "addr",
          "type": "address"
        }
      ],
      "name": "disableUser",
      "outputs": [],
      "stateMutability": "nonpayable",
      "type": "function"
    }
  ],
  "bytecode": "0x608060405234801561001057600080fd5b50336000806101000a81548173ffffffffffffffffffffffffffffffffffffffff021916908373ffffffffffffffffffffffffffffffffffffffff160217905550610df8806100606000396000f3fe608060405234801561001057600080fd5b506004361061005e576000357c0100000000000000000000000000000000000000000000000000000000900480636386c1c714610063578063e21eabed14610093578063ee6649a1146100af575b600080fd5b61007d600480360381019061007891906107d6565b6100cb565b60405161008a9190610905565b60405180910390f35b6100ad60048036038101906100a89190610a5c565b610263565b005b6100c960048036038101906100c491906107d6565b6104a4565b005b6100d3610741565b600160008373ffffffffffffffffffffffffffffffffffffffff1673ffffffffffffffffffffffffffffffffffffffff16815260200190815260200160002060405180606001604052908160008201805461012d90610b03565b80601f016020809104026020016040519081016040528092919081815260200182805461015990610b03565b80156101a65780601f1061017b576101008083540402835291602001916101a6565b820191906000526020600020905b81548152906001019060200180831161018957829003601f168201915b505050505081526020016001820180546101bf90610b03565b80601f01602080910402602001604051908101604052809291908181526020018280546101eb90610b03565b80156102385780601f1061020d57610100808354040283529160200191610238565b820191906000526020600020905b81548152906001019060200180831161021b57829003601f168201915b505050505081526020016002820160009054906101000a900460ff1615151515815250509050919050565b6000600160003373ffffffffffffffffffffffffffffffffffffffff1673ffffffffffffffffffffffffffffffffffffffff1681526020019081526020016000206040518060600160405290816000820180546102bf90610b03565b80601f01602080910402602001604051908101604052809291908181526020018280546102eb90610b03565b80156103385780601f1061030d57610100808354040283529160200191610338565b820191906000526020600020905b81548152906001019060200180831161031b57829003601f168201915b5050505050815260200160018201805461035190610b03565b80601f016020809104026020016040519081016040528092919081815260200182805461037d90610b03565b80156103ca5780601f1061039f576101008083540402835291602001916103ca565b820191906000526020600020905b8154815290600101906020018083116103ad57829003601f168201915b505050505081526020016002820160009054906101000a900460ff1615151515815250509050604051806060016040528084815260200183815260200182604001511515815250600160003373ffffffffffffffffffffffffffffffffffffffff1673ffffffffffffffffffffffffffffffffffffffff16815260200190815260200160002060008201518160000190816104659190610cf0565b50602082015181600101908161047b9190610cf0565b5060408201518160020160006101000a81548160ff021916908315150217905550905050505050565b60008054906101000a900473ffffffffffffffffffffffffffffffffffffffff1673ffffffffffffffffffffffffffffffffffffffff163373ffffffffffffffffffffffffffffffffffffffff16146104fc57600080fd5b6000600160008373ffffffffffffffffffffffffffffffffffffffff1673ffffffffffffffffffffffffffffffffffffffff16815260200190815260200160002060405180606001604052908160008201805461055890610b03565b80601f016020809104026020016040519081016040528092919081815260200182805461058490610b03565b80156105d15780601f106105a6576101008083540402835291602001916105d1565b820191906000526020600020905b8154815290600101906020018083116105b457829003601f168201915b505050505081526020016001820180546105ea90610b03565b80601f016020809104026020016040519081016040528092919081815260200182805461061690610b03565b80156106635780601f1061063857610100808354040283529160200191610663565b820191906000526020600020905b81548152906001019060200180831161064657829003601f168201915b505050505081526020016002820160009054906101000a900460ff16151515158152505090506040518060600160405280826000015181526020018260200151815260200160011515815250600160003373ffffffffffffffffffffffffffffffffffffffff1673ffffffffffffffffffffffffffffffffffffffff16815260200190815260200160002060008201518160000190816107039190610cf0565b5060208201518160010190816107199190610cf0565b5060408201518160020160006101000a81548160ff0219169083151502179055509050505050565b604051806060016040528060608152602001606081526020016000151581525090565b6000604051905090565b600080fd5b600080fd5b600073ffffffffffffffffffffffffffffffffffffffff82169050919050565b60006107a382610778565b9050919050565b6107b381610798565b81146107be57600080fd5b50565b6000813590506107d0816107aa565b92915050565b6000602082840312156107ec576107eb61076e565b5b60006107fa848285016107c1565b91505092915050565b600081519050919050565b600082825260208201905092915050565b60005b8381101561083d578082015181840152602081019050610822565b60008484015250505050565b6000601f19601f8301169050919050565b600061086582610803565b61086f818561080e565b935061087f81856020860161081f565b61088881610849565b840191505092915050565b60008115159050919050565b6108a881610893565b82525050565b600060608301600083015184820360008601526108cb828261085a565b915050602083015184820360208601526108e5828261085a565b91505060408301516108fa604086018261089f565b508091505092915050565b6000602082019050818103600083015261091f81846108ae565b905092915050565b600080fd5b600080fd5b7f4e487b7100000000000000000000000000000000000000000000000000000000600052604160045260246000fd5b61096982610849565b810181811067ffffffffffffffff8211171561098857610987610931565b5b80604052505050565b600061099b610764565b90506109a78282610960565b919050565b600067ffffffffffffffff8211156109c7576109c6610931565b5b6109d082610849565b9050602081019050919050565b82818337600083830152505050565b60006109ff6109fa846109ac565b610991565b905082815260208101848484011115610a1b57610a1a61092c565b5b610a268482856109dd565b509392505050565b600082601f830112610a4357610a42610927565b5b8135610a538482602086016109ec565b91505092915050565b60008060408385031215610a7357610a7261076e565b5b600083013567ffffffffffffffff811115610a9157610a90610773565b5b610a9d85828601610a2e565b925050602083013567ffffffffffffffff811115610abe57610abd610773565b5b610aca85828601610a2e565b9150509250929050565b7f4e487b7100000000000000000000000000000000000000000000000000000000600052602260045260246000fd5b60006002820490506001821680610b1b57607f821691505b602082108103610b2e57610b2d610ad4565b5b50919050565b60008190508160005260206000209050919050565b60006020601f8301049050919050565b60008160020a8302905092915050565b600060088302610b997fffffffffffffffffffffffffffffffffffffffffffffffffffffffffffffffff82610b59565b610ba38683610b59565b95508019841693508086168417925050509392505050565b6000819050919050565b6000819050919050565b6000610bea610be5610be084610bbb565b610bc5565b610bbb565b9050919050565b6000819050919050565b610c0483610bcf565b610c18610c1082610bf1565b848454610b69565b825550505050565b600090565b610c2d610c20565b610c38818484610bfb565b505050565b5b81811015610c5c57610c51600082610c25565b600181019050610c3e565b5050565b601f821115610ca157610c7281610b34565b610c7b84610b49565b81016020851015610c8a578190505b610c9e610c9685610b49565b830182610c3d565b50505b505050565b60008160020a8304905092915050565b6000610cc760001984600802610ca6565b1980831691505092915050565b6000610ce08383610cb6565b9150826002028217905092915050565b610cf982610803565b67ffffffffffffffff811115610d1257610d11610931565b5b610d1c8254610b03565b610d27828285610c60565b600060209050601f831160018114610d5a5760008415610d48578287015190505b610d528582610cd4565b865550610dba565b601f198416610d6886610b34565b60005b82811015610d9057848901518255600182019150602085019450602081019050610d6b565b86831015610dad5784890151610da9601f891682610cb6565b8355505b6001600288020188555050505b50505050505056fea2646970667358221220874dde86b4a6e001f81894e83a0eabc4114e0d7c6e1c5768ca3857412b3a25ac64736f6c63430008100033",
  "immutableReferences": {},
  "source": "// SPDX-License-Identifier: MIT\r\n\r\npragma solidity ^0.8.0;\r\n\r\ncontract Flying {\r\n    address owner;\r\n\r\n    struct UserInfo{\r\n        string privateKey;\r\n        string publicKey;\r\n        bool disabled;\r\n    }\r\n\r\n    // \r\n    mapping (address => UserInfo) userInfoMapping;\r\n\r\n    constructor() {\r\n        owner = msg.sender;\r\n    }\r\n\r\n    // \r\n    function setUserInfo(string memory privateKey,string memory publicKey) public {\r\n        UserInfo memory old = userInfoMapping[msg.sender];\r\n        userInfoMapping[msg.sender] = UserInfo(privateKey,publicKey,old.disabled);\r\n    }\r\n\r\n    // \r\n    function getUserInfo(address addr) public view returns(UserInfo memory) {\r\n        return userInfoMapping[addr];\r\n    }\r\n\r\n    // \r\n    function disableUser(address addr) public {\r\n        require(msg.sender == owner);\r\n\r\n        UserInfo memory old = userInfoMapping[addr];\r\n        userInfoMapping[msg.sender] = UserInfo(old.privateKey,old.publicKey,true);\r\n    }\r\n}\r\n",
  "sourcePath": "X:\\Users\\github\\workspace\\flying\\contracts\\Flying.sol",
  "compiler": {
    "name": "solc",
    "version": "0.8.16+commit.07a7930e.Emscripten.clang"
  },
  "schemaVersion": "3.4.9",
  "updatedAt": "2022-08-31T15:06:39.368Z",
  "devdoc": {
    "kind": "dev",
    "methods": {},
    "version": 1
  },
  "userdoc": {
    "kind": "user",
    "methods": {},
    "version": 1
  }
}